{
  "_format": "hh-sol-artifact-1",
  "contractName": "Voting",
  "sourceName": "contracts/Voting.sol",
  "abi": [
    {
      "inputs": [
        {
          "internalType": "string[]",
          "name": "candidateNames",
          "type": "string[]"
        }
      ],
      "stateMutability": "nonpayable",
      "type": "constructor"
    },
    {
      "inputs": [
        {
          "internalType": "string",
          "name": "name",
          "type": "string"
        }
      ],
      "name": "addCandidate",
      "outputs": [],
      "stateMutability": "nonpayable",
      "type": "function"
    },
    {
      "inputs": [
        {
          "internalType": "uint256",
          "name": "",
          "type": "uint256"
        }
      ],
      "name": "candidates",
      "outputs": [
        {
          "internalType": "uint256",
          "name": "id",
          "type": "uint256"
        },
        {
          "internalType": "string",
          "name": "name",
          "type": "string"
        },
        {
          "internalType": "uint256",
          "name": "voteCount",
          "type": "uint256"
        }
      ],
      "stateMutability": "view",
      "type": "function"
    },
    {
      "inputs": [],
      "name": "candidatesCount",
      "outputs": [
        {
          "internalType": "uint256",
          "name": "",
          "type": "uint256"
        }
      ],
      "stateMutability": "view",
      "type": "function"
    },
    {
      "inputs": [],
      "name": "endVote",
      "outputs": [],
      "stateMutability": "nonpayable",
      "type": "function"
    },
    {
      "inputs": [],
      "name": "getAllCandidates",
      "outputs": [
        {
          "components": [
            {
              "internalType": "uint256",
              "name": "id",
              "type": "uint256"
            },
            {
              "internalType": "string",
              "name": "name",
              "type": "string"
            },
            {
              "internalType": "uint256",
              "name": "voteCount",
              "type": "uint256"
            }
          ],
          "internalType": "struct Voting.Candidate[]",
          "name": "",
          "type": "tuple[]"
        }
      ],
      "stateMutability": "view",
      "type": "function"
    },
    {
      "inputs": [
        {
          "internalType": "uint256",
          "name": "candidateId",
          "type": "uint256"
        }
      ],
      "name": "getVotingResults",
      "outputs": [
        {
          "internalType": "uint256",
          "name": "",
          "type": "uint256"
        }
      ],
      "stateMutability": "view",
      "type": "function"
    },
    {
      "inputs": [
        {
          "internalType": "address",
          "name": "",
          "type": "address"
        }
      ],
      "name": "hasVoted",
      "outputs": [
        {
          "internalType": "bool",
          "name": "",
          "type": "bool"
        }
      ],
      "stateMutability": "view",
      "type": "function"
    },
    {
      "inputs": [],
      "name": "owner",
      "outputs": [
        {
          "internalType": "address",
          "name": "",
          "type": "address"
        }
      ],
      "stateMutability": "view",
      "type": "function"
    },
    {
      "inputs": [
        {
          "internalType": "uint256",
          "name": "candidateId",
          "type": "uint256"
        }
      ],
      "name": "vote",
      "outputs": [],
      "stateMutability": "nonpayable",
      "type": "function"
    },
    {
      "inputs": [],
      "name": "votingEnded",
      "outputs": [
        {
          "internalType": "bool",
          "name": "",
          "type": "bool"
        }
      ],
      "stateMutability": "view",
      "type": "function"
    }
  ],
  "bytecode": "0x60806040523480156200001157600080fd5b5060405162001c1c38038062001c1c8339818101604052810190620000379190620003ca565b60005b8151811015620000f35760016000815480929190620000599062000454565b919050555060405180606001604052806001548152602001838381518110620000875762000086620004a1565b5b602002602001015181526020016000815250600260006001548152602001908152602001600020600082015181600001556020820151816001019081620000cf919062000711565b50604082015181600201559050508080620000ea9062000454565b9150506200003a565b50336000806101000a81548173ffffffffffffffffffffffffffffffffffffffff021916908373ffffffffffffffffffffffffffffffffffffffff16021790555050620007f8565b6000604051905090565b600080fd5b600080fd5b600080fd5b6000601f19601f8301169050919050565b7f4e487b7100000000000000000000000000000000000000000000000000000000600052604160045260246000fd5b6200019f8262000154565b810181811067ffffffffffffffff82111715620001c157620001c062000165565b5b80604052505050565b6000620001d66200013b565b9050620001e4828262000194565b919050565b600067ffffffffffffffff82111562000207576200020662000165565b5b602082029050602081019050919050565b600080fd5b600080fd5b600067ffffffffffffffff82111562000240576200023f62000165565b5b6200024b8262000154565b9050602081019050919050565b60005b83811015620002785780820151818401526020810190506200025b565b60008484015250505050565b60006200029b620002958462000222565b620001ca565b905082815260208101848484011115620002ba57620002b96200021d565b5b620002c784828562000258565b509392505050565b600082601f830112620002e757620002e66200014f565b5b8151620002f984826020860162000284565b91505092915050565b6000620003196200031384620001e9565b620001ca565b905080838252602082019050602084028301858111156200033f576200033e62000218565b5b835b818110156200038d57805167ffffffffffffffff8111156200036857620003676200014f565b5b808601620003778982620002cf565b8552602085019450505060208101905062000341565b5050509392505050565b600082601f830112620003af57620003ae6200014f565b5b8151620003c184826020860162000302565b91505092915050565b600060208284031215620003e357620003e262000145565b5b600082015167ffffffffffffffff8111156200040457620004036200014a565b5b620004128482850162000397565b91505092915050565b7f4e487b7100000000000000000000000000000000000000000000000000000000600052601160045260246000fd5b6000819050919050565b600062000461826200044a565b91507fffffffffffffffffffffffffffffffffffffffffffffffffffffffffffffffff82036200049657620004956200041b565b5b600182019050919050565b7f4e487b7100000000000000000000000000000000000000000000000000000000600052603260045260246000fd5b600081519050919050565b7f4e487b7100000000000000000000000000000000000000000000000000000000600052602260045260246000fd5b600060028204905060018216806200052357607f821691505b602082108103620005395762000538620004db565b5b50919050565b60008190508160005260206000209050919050565b60006020601f8301049050919050565b600082821b905092915050565b600060088302620005a37fffffffffffffffffffffffffffffffffffffffffffffffffffffffffffffffff8262000564565b620005af868362000564565b95508019841693508086168417925050509392505050565b6000819050919050565b6000620005f2620005ec620005e6846200044a565b620005c7565b6200044a565b9050919050565b6000819050919050565b6200060e83620005d1565b620006266200061d82620005f9565b84845462000571565b825550505050565b600090565b6200063d6200062e565b6200064a81848462000603565b505050565b5b8181101562000672576200066660008262000633565b60018101905062000650565b5050565b601f821115620006c1576200068b816200053f565b620006968462000554565b81016020851015620006a6578190505b620006be620006b58562000554565b8301826200064f565b50505b505050565b600082821c905092915050565b6000620006e660001984600802620006c6565b1980831691505092915050565b6000620007018383620006d3565b9150826002028217905092915050565b6200071c82620004d0565b67ffffffffffffffff81111562000738576200073762000165565b5b6200074482546200050a565b6200075182828562000676565b600060209050601f83116001811462000789576000841562000774578287015190505b620007808582620006f3565b865550620007f0565b601f19841662000799866200053f565b60005b82811015620007c3578489015182556001820191506020850194506020810190506200079c565b86831015620007e35784890151620007df601f891682620006d3565b8355505b6001600288020188555050505b505050505050565b61141480620008086000396000f3fe608060405234801561001057600080fd5b506004361061009e5760003560e01c8063462e91ec11610066578063462e91ec1461015d5780638da5cb5b146101795780639d5a052914610197578063b9223946146101b5578063cd89b2e3146101bf5761009e565b80630121b93f146100a357806309eef43e146100bf5780632d35a8a2146100ef5780632e6997fe1461010d5780633477ee2e1461012b575b600080fd5b6100bd60048036038101906100b891906108c9565b6101ef565b005b6100d960048036038101906100d49190610954565b6103a4565b6040516100e6919061099c565b60405180910390f35b6100f76103c4565b60405161010491906109c6565b60405180910390f35b6101156103ca565b6040516101229190610b92565b60405180910390f35b610145600480360381019061014091906108c9565b61053f565b60405161015493929190610bfe565b60405180910390f35b61017760048036038101906101729190610d71565b6105f1565b005b61018161074a565b60405161018e9190610dc9565b60405180910390f35b61019f61076e565b6040516101ac919061099c565b60405180910390f35b6101bd610781565b005b6101d960048036038101906101d491906108c9565b6107ee565b6040516101e691906109c6565b60405180910390f35b600060149054906101000a900460ff161561023f576040517f08c379a000000000000000000000000000000000000000000000000000000000815260040161023690610e30565b60405180910390fd5b600360003373ffffffffffffffffffffffffffffffffffffffff1673ffffffffffffffffffffffffffffffffffffffff16815260200190815260200160002060009054906101000a900460ff16156102cc576040517f08c379a00000000000000000000000000000000000000000000000000000000081526004016102c390610e9c565b60405180910390fd5b6000811180156102de57506001548111155b61031d576040517f08c379a000000000000000000000000000000000000000000000000000000000815260040161031490610f08565b60405180910390fd5b6001600360003373ffffffffffffffffffffffffffffffffffffffff1673ffffffffffffffffffffffffffffffffffffffff16815260200190815260200160002060006101000a81548160ff02191690831515021790555060026000828152602001908152602001600020600201600081548092919061039c90610f57565b919050555050565b60036020528060005260406000206000915054906101000a900460ff1681565b60015481565b6060600060015467ffffffffffffffff8111156103ea576103e9610c46565b5b60405190808252806020026020018201604052801561042357816020015b61041061085e565b8152602001906001900390816104085790505b5090506000600190505b600154811161053757600260008281526020019081526020016000206040518060600160405290816000820154815260200160018201805461046e90610fce565b80601f016020809104026020016040519081016040528092919081815260200182805461049a90610fce565b80156104e75780601f106104bc576101008083540402835291602001916104e7565b820191906000526020600020905b8154815290600101906020018083116104ca57829003601f168201915b50505050508152602001600282015481525050826001836105089190610fff565b8151811061051957610518611033565b5b6020026020010181905250808061052f90610f57565b91505061042d565b508091505090565b600260205280600052604060002060009150905080600001549080600101805461056890610fce565b80601f016020809104026020016040519081016040528092919081815260200182805461059490610fce565b80156105e15780601f106105b6576101008083540402835291602001916105e1565b820191906000526020600020905b8154815290600101906020018083116105c457829003601f168201915b5050505050908060020154905083565b60008054906101000a900473ffffffffffffffffffffffffffffffffffffffff1673ffffffffffffffffffffffffffffffffffffffff163373ffffffffffffffffffffffffffffffffffffffff161461067f576040517f08c379a0000000000000000000000000000000000000000000000000000000008152600401610676906110d4565b60405180910390fd5b600060149054906101000a900460ff16156106cf576040517f08c379a00000000000000000000000000000000000000000000000000000000081526004016106c690610e30565b60405180910390fd5b600160008154809291906106e290610f57565b919050555060405180606001604052806001548152602001828152602001600081525060026000600154815260200190815260200160002060008201518160000155602082015181600101908161073991906112a0565b506040820151816002015590505050565b60008054906101000a900473ffffffffffffffffffffffffffffffffffffffff1681565b600060149054906101000a900460ff1681565b600060149054906101000a900460ff16156107d1576040517f08c379a00000000000000000000000000000000000000000000000000000000081526004016107c890610e30565b60405180910390fd5b6001600060146101000a81548160ff021916908315150217905550565b6000808211801561080157506001548211155b610840576040517f08c379a0000000000000000000000000000000000000000000000000000000008152600401610837906113be565b60405180910390fd5b60026000838152602001908152602001600020600201549050919050565b60405180606001604052806000815260200160608152602001600081525090565b6000604051905090565b600080fd5b600080fd5b6000819050919050565b6108a681610893565b81146108b157600080fd5b50565b6000813590506108c38161089d565b92915050565b6000602082840312156108df576108de610889565b5b60006108ed848285016108b4565b91505092915050565b600073ffffffffffffffffffffffffffffffffffffffff82169050919050565b6000610921826108f6565b9050919050565b61093181610916565b811461093c57600080fd5b50565b60008135905061094e81610928565b92915050565b60006020828403121561096a57610969610889565b5b60006109788482850161093f565b91505092915050565b60008115159050919050565b61099681610981565b82525050565b60006020820190506109b1600083018461098d565b92915050565b6109c081610893565b82525050565b60006020820190506109db60008301846109b7565b92915050565b600081519050919050565b600082825260208201905092915050565b6000819050602082019050919050565b610a1681610893565b82525050565b600081519050919050565b600082825260208201905092915050565b60005b83811015610a56578082015181840152602081019050610a3b565b60008484015250505050565b6000601f19601f8301169050919050565b6000610a7e82610a1c565b610a888185610a27565b9350610a98818560208601610a38565b610aa181610a62565b840191505092915050565b6000606083016000830151610ac46000860182610a0d565b5060208301518482036020860152610adc8282610a73565b9150506040830151610af16040860182610a0d565b508091505092915050565b6000610b088383610aac565b905092915050565b6000602082019050919050565b6000610b28826109e1565b610b3281856109ec565b935083602082028501610b44856109fd565b8060005b85811015610b805784840389528151610b618582610afc565b9450610b6c83610b10565b925060208a01995050600181019050610b48565b50829750879550505050505092915050565b60006020820190508181036000830152610bac8184610b1d565b905092915050565b600082825260208201905092915050565b6000610bd082610a1c565b610bda8185610bb4565b9350610bea818560208601610a38565b610bf381610a62565b840191505092915050565b6000606082019050610c1360008301866109b7565b8181036020830152610c258185610bc5565b9050610c3460408301846109b7565b949350505050565b600080fd5b600080fd5b7f4e487b7100000000000000000000000000000000000000000000000000000000600052604160045260246000fd5b610c7e82610a62565b810181811067ffffffffffffffff82111715610c9d57610c9c610c46565b5b80604052505050565b6000610cb061087f565b9050610cbc8282610c75565b919050565b600067ffffffffffffffff821115610cdc57610cdb610c46565b5b610ce582610a62565b9050602081019050919050565b82818337600083830152505050565b6000610d14610d0f84610cc1565b610ca6565b905082815260208101848484011115610d3057610d2f610c41565b5b610d3b848285610cf2565b509392505050565b600082601f830112610d5857610d57610c3c565b5b8135610d68848260208601610d01565b91505092915050565b600060208284031215610d8757610d86610889565b5b600082013567ffffffffffffffff811115610da557610da461088e565b5b610db184828501610d43565b91505092915050565b610dc381610916565b82525050565b6000602082019050610dde6000830184610dba565b92915050565b7f566f74696e672068617320616c726561647920656e6465640000000000000000600082015250565b6000610e1a601883610bb4565b9150610e2582610de4565b602082019050919050565b60006020820190508181036000830152610e4981610e0d565b9050919050565b7f5573657220616c726561647920766f7465640000000000000000000000000000600082015250565b6000610e86601283610bb4565b9150610e9182610e50565b602082019050919050565b60006020820190508181036000830152610eb581610e79565b9050919050565b7f496e76616c69642063616e646964617465204964000000000000000000000000600082015250565b6000610ef2601483610bb4565b9150610efd82610ebc565b602082019050919050565b60006020820190508181036000830152610f2181610ee5565b9050919050565b7f4e487b7100000000000000000000000000000000000000000000000000000000600052601160045260246000fd5b6000610f6282610893565b91507fffffffffffffffffffffffffffffffffffffffffffffffffffffffffffffffff8203610f9457610f93610f28565b5b600182019050919050565b7f4e487b7100000000000000000000000000000000000000000000000000000000600052602260045260246000fd5b60006002820490506001821680610fe657607f821691505b602082108103610ff957610ff8610f9f565b5b50919050565b600061100a82610893565b915061101583610893565b925082820390508181111561102d5761102c610f28565b5b92915050565b7f4e487b7100000000000000000000000000000000000000000000000000000000600052603260045260246000fd5b7f4f6e6c7920746865206f776e65722063616e20706572666f726d20746869732060008201527f616374696f6e0000000000000000000000000000000000000000000000000000602082015250565b60006110be602683610bb4565b91506110c982611062565b604082019050919050565b600060208201905081810360008301526110ed816110b1565b9050919050565b60008190508160005260206000209050919050565b60006020601f8301049050919050565b600082821b905092915050565b6000600883026111567fffffffffffffffffffffffffffffffffffffffffffffffffffffffffffffffff82611119565b6111608683611119565b95508019841693508086168417925050509392505050565b6000819050919050565b600061119d61119861119384610893565b611178565b610893565b9050919050565b6000819050919050565b6111b783611182565b6111cb6111c3826111a4565b848454611126565b825550505050565b600090565b6111e06111d3565b6111eb8184846111ae565b505050565b5b8181101561120f576112046000826111d8565b6001810190506111f1565b5050565b601f82111561125457611225816110f4565b61122e84611109565b8101602085101561123d578190505b61125161124985611109565b8301826111f0565b50505b505050565b600082821c905092915050565b600061127760001984600802611259565b1980831691505092915050565b60006112908383611266565b9150826002028217905092915050565b6112a982610a1c565b67ffffffffffffffff8111156112c2576112c1610c46565b5b6112cc8254610fce565b6112d7828285611213565b600060209050601f83116001811461130a57600084156112f8578287015190505b6113028582611284565b86555061136a565b601f198416611318866110f4565b60005b828110156113405784890151825560018201915060208501945060208101905061131b565b8683101561135d5784890151611359601f891682611266565b8355505b6001600288020188555050505b505050505050565b7f496e76616c69642063616e646964617465204944000000000000000000000000600082015250565b60006113a8601483610bb4565b91506113b382611372565b602082019050919050565b600060208201905081810360008301526113d78161139b565b905091905056fea26469706673582212200015b97a6e45cc6c3472a557a288e9dd8a2afd7356bd31bb05d52aa9ee32f53564736f6c63430008130033",
  "linkReferences": {},
  "deployedLinkReferences": {}
}