{
  "_format": "hh-sol-artifact-1",
  "contractName": "Voting",
  "sourceName": "contracts/Voting.sol",
  "abi": [
    {
      "inputs": [],
      "stateMutability": "nonpayable",
      "type": "constructor"
    },
    {
      "inputs": [
        {
          "internalType": "string",
          "name": "name",
          "type": "string"
        }
      ],
      "name": "addCandidate",
      "outputs": [],
      "stateMutability": "nonpayable",
      "type": "function"
    },
    {
      "inputs": [
        {
          "internalType": "uint256",
          "name": "",
          "type": "uint256"
        }
      ],
      "name": "candidates",
      "outputs": [
        {
          "internalType": "uint256",
          "name": "id",
          "type": "uint256"
        },
        {
          "internalType": "string",
          "name": "name",
          "type": "string"
        },
        {
          "internalType": "uint256",
          "name": "voteCount",
          "type": "uint256"
        }
      ],
      "stateMutability": "view",
      "type": "function"
    },
    {
      "inputs": [],
      "name": "candidatesCount",
      "outputs": [
        {
          "internalType": "uint256",
          "name": "",
          "type": "uint256"
        }
      ],
      "stateMutability": "view",
      "type": "function"
    },
    {
      "inputs": [
        {
          "internalType": "uint256",
          "name": "candidateId",
          "type": "uint256"
        }
      ],
      "name": "getVotingResults",
      "outputs": [
        {
          "internalType": "uint256",
          "name": "",
          "type": "uint256"
        }
      ],
      "stateMutability": "view",
      "type": "function"
    },
    {
      "inputs": [
        {
          "internalType": "address",
          "name": "",
          "type": "address"
        }
      ],
      "name": "hasVoted",
      "outputs": [
        {
          "internalType": "bool",
          "name": "",
          "type": "bool"
        }
      ],
      "stateMutability": "view",
      "type": "function"
    },
    {
      "inputs": [],
      "name": "owner",
      "outputs": [
        {
          "internalType": "address",
          "name": "",
          "type": "address"
        }
      ],
      "stateMutability": "view",
      "type": "function"
    },
    {
      "inputs": [
        {
          "internalType": "uint256",
          "name": "candidateId",
          "type": "uint256"
        }
      ],
      "name": "vote",
      "outputs": [],
      "stateMutability": "nonpayable",
      "type": "function"
    },
    {
      "inputs": [],
      "name": "votingEnded",
      "outputs": [
        {
          "internalType": "bool",
          "name": "",
          "type": "bool"
        }
      ],
      "stateMutability": "view",
      "type": "function"
    }
  ],
  "bytecode": "0x608060405234801561001057600080fd5b50336000806101000a81548173ffffffffffffffffffffffffffffffffffffffff021916908373ffffffffffffffffffffffffffffffffffffffff160217905550610fe3806100606000396000f3fe608060405234801561001057600080fd5b50600436106100885760003560e01c8063462e91ec1161005b578063462e91ec146101295780638da5cb5b146101455780639d5a052914610163578063cd89b2e31461018157610088565b80630121b93f1461008d57806309eef43e146100a95780632d35a8a2146100d95780633477ee2e146100f7575b600080fd5b6100a760048036038101906100a29190610688565b6101b1565b005b6100c360048036038101906100be9190610713565b610366565b6040516100d0919061075b565b60405180910390f35b6100e1610386565b6040516100ee9190610785565b60405180910390f35b610111600480360381019061010c9190610688565b61038c565b60405161012093929190610830565b60405180910390f35b610143600480360381019061013e91906109a3565b61043e565b005b61014d610597565b60405161015a91906109fb565b60405180910390f35b61016b6105bb565b604051610178919061075b565b60405180910390f35b61019b60048036038101906101969190610688565b6105ce565b6040516101a89190610785565b60405180910390f35b600060149054906101000a900460ff1615610201576040517f08c379a00000000000000000000000000000000000000000000000000000000081526004016101f890610a62565b60405180910390fd5b600360003373ffffffffffffffffffffffffffffffffffffffff1673ffffffffffffffffffffffffffffffffffffffff16815260200190815260200160002060009054906101000a900460ff161561028e576040517f08c379a000000000000000000000000000000000000000000000000000000000815260040161028590610ace565b60405180910390fd5b6000811180156102a057506001548111155b6102df576040517f08c379a00000000000000000000000000000000000000000000000000000000081526004016102d690610b3a565b60405180910390fd5b6001600360003373ffffffffffffffffffffffffffffffffffffffff1673ffffffffffffffffffffffffffffffffffffffff16815260200190815260200160002060006101000a81548160ff02191690831515021790555060026000828152602001908152602001600020600201600081548092919061035e90610b89565b919050555050565b60036020528060005260406000206000915054906101000a900460ff1681565b60015481565b60026020528060005260406000206000915090508060000154908060010180546103b590610c00565b80601f01602080910402602001604051908101604052809291908181526020018280546103e190610c00565b801561042e5780601f106104035761010080835404028352916020019161042e565b820191906000526020600020905b81548152906001019060200180831161041157829003601f168201915b5050505050908060020154905083565b60008054906101000a900473ffffffffffffffffffffffffffffffffffffffff1673ffffffffffffffffffffffffffffffffffffffff163373ffffffffffffffffffffffffffffffffffffffff16146104cc576040517f08c379a00000000000000000000000000000000000000000000000000000000081526004016104c390610ca3565b60405180910390fd5b600060149054906101000a900460ff161561051c576040517f08c379a000000000000000000000000000000000000000000000000000000000815260040161051390610a62565b60405180910390fd5b6001600081548092919061052f90610b89565b91905055506040518060600160405280600154815260200182815260200160008152506002600060015481526020019081526020016000206000820151816000015560208201518160010190816105869190610e6f565b506040820151816002015590505050565b60008054906101000a900473ffffffffffffffffffffffffffffffffffffffff1681565b600060149054906101000a900460ff1681565b600080821180156105e157506001548211155b610620576040517f08c379a000000000000000000000000000000000000000000000000000000000815260040161061790610f8d565b60405180910390fd5b60026000838152602001908152602001600020600201549050919050565b6000604051905090565b600080fd5b600080fd5b6000819050919050565b61066581610652565b811461067057600080fd5b50565b6000813590506106828161065c565b92915050565b60006020828403121561069e5761069d610648565b5b60006106ac84828501610673565b91505092915050565b600073ffffffffffffffffffffffffffffffffffffffff82169050919050565b60006106e0826106b5565b9050919050565b6106f0816106d5565b81146106fb57600080fd5b50565b60008135905061070d816106e7565b92915050565b60006020828403121561072957610728610648565b5b6000610737848285016106fe565b91505092915050565b60008115159050919050565b61075581610740565b82525050565b6000602082019050610770600083018461074c565b92915050565b61077f81610652565b82525050565b600060208201905061079a6000830184610776565b92915050565b600081519050919050565b600082825260208201905092915050565b60005b838110156107da5780820151818401526020810190506107bf565b60008484015250505050565b6000601f19601f8301169050919050565b6000610802826107a0565b61080c81856107ab565b935061081c8185602086016107bc565b610825816107e6565b840191505092915050565b60006060820190506108456000830186610776565b818103602083015261085781856107f7565b90506108666040830184610776565b949350505050565b600080fd5b600080fd5b7f4e487b7100000000000000000000000000000000000000000000000000000000600052604160045260246000fd5b6108b0826107e6565b810181811067ffffffffffffffff821117156108cf576108ce610878565b5b80604052505050565b60006108e261063e565b90506108ee82826108a7565b919050565b600067ffffffffffffffff82111561090e5761090d610878565b5b610917826107e6565b9050602081019050919050565b82818337600083830152505050565b6000610946610941846108f3565b6108d8565b90508281526020810184848401111561096257610961610873565b5b61096d848285610924565b509392505050565b600082601f83011261098a5761098961086e565b5b813561099a848260208601610933565b91505092915050565b6000602082840312156109b9576109b8610648565b5b600082013567ffffffffffffffff8111156109d7576109d661064d565b5b6109e384828501610975565b91505092915050565b6109f5816106d5565b82525050565b6000602082019050610a1060008301846109ec565b92915050565b7f566f74696e672068617320616c726561647920656e6465640000000000000000600082015250565b6000610a4c6018836107ab565b9150610a5782610a16565b602082019050919050565b60006020820190508181036000830152610a7b81610a3f565b9050919050565b7f5573657220616c726561647920766f7465640000000000000000000000000000600082015250565b6000610ab86012836107ab565b9150610ac382610a82565b602082019050919050565b60006020820190508181036000830152610ae781610aab565b9050919050565b7f496e76616c69642063616e646964617465204964000000000000000000000000600082015250565b6000610b246014836107ab565b9150610b2f82610aee565b602082019050919050565b60006020820190508181036000830152610b5381610b17565b9050919050565b7f4e487b7100000000000000000000000000000000000000000000000000000000600052601160045260246000fd5b6000610b9482610652565b91507fffffffffffffffffffffffffffffffffffffffffffffffffffffffffffffffff8203610bc657610bc5610b5a565b5b600182019050919050565b7f4e487b7100000000000000000000000000000000000000000000000000000000600052602260045260246000fd5b60006002820490506001821680610c1857607f821691505b602082108103610c2b57610c2a610bd1565b5b50919050565b7f4f6e6c7920746865206f776e65722063616e20706572666f726d20746869732060008201527f616374696f6e0000000000000000000000000000000000000000000000000000602082015250565b6000610c8d6026836107ab565b9150610c9882610c31565b604082019050919050565b60006020820190508181036000830152610cbc81610c80565b9050919050565b60008190508160005260206000209050919050565b60006020601f8301049050919050565b600082821b905092915050565b600060088302610d257fffffffffffffffffffffffffffffffffffffffffffffffffffffffffffffffff82610ce8565b610d2f8683610ce8565b95508019841693508086168417925050509392505050565b6000819050919050565b6000610d6c610d67610d6284610652565b610d47565b610652565b9050919050565b6000819050919050565b610d8683610d51565b610d9a610d9282610d73565b848454610cf5565b825550505050565b600090565b610daf610da2565b610dba818484610d7d565b505050565b5b81811015610dde57610dd3600082610da7565b600181019050610dc0565b5050565b601f821115610e2357610df481610cc3565b610dfd84610cd8565b81016020851015610e0c578190505b610e20610e1885610cd8565b830182610dbf565b50505b505050565b600082821c905092915050565b6000610e4660001984600802610e28565b1980831691505092915050565b6000610e5f8383610e35565b9150826002028217905092915050565b610e78826107a0565b67ffffffffffffffff811115610e9157610e90610878565b5b610e9b8254610c00565b610ea6828285610de2565b600060209050601f831160018114610ed95760008415610ec7578287015190505b610ed18582610e53565b865550610f39565b601f198416610ee786610cc3565b60005b82811015610f0f57848901518255600182019150602085019450602081019050610eea565b86831015610f2c5784890151610f28601f891682610e35565b8355505b6001600288020188555050505b505050505050565b7f496e76616c69642063616e646964617465204944000000000000000000000000600082015250565b6000610f776014836107ab565b9150610f8282610f41565b602082019050919050565b60006020820190508181036000830152610fa681610f6a565b905091905056fea264697066735822122089b8374cc9a9548d21c320717f9efe07bba0eaa3a5bd108c5c657cfb289c65b064736f6c63430008130033",
  "linkReferences": {},
  "deployedLinkReferences": {}
}