{
  "_format": "hh-sol-artifact-1",
  "contractName": "Voting",
  "sourceName": "contracts/Voting.sol",
  "abi": [
    {
      "inputs": [
        {
          "internalType": "string[]",
          "name": "candidateNames",
          "type": "string[]"
        }
      ],
      "stateMutability": "nonpayable",
      "type": "constructor"
    },
    {
      "anonymous": false,
      "inputs": [
        {
          "indexed": true,
          "internalType": "uint256",
          "name": "candidateId",
          "type": "uint256"
        },
        {
          "indexed": false,
          "internalType": "string",
          "name": "candidateName",
          "type": "string"
        }
      ],
      "name": "CandidateAdded",
      "type": "event"
    },
    {
      "inputs": [
        {
          "internalType": "string",
          "name": "name",
          "type": "string"
        }
      ],
      "name": "addCandidate",
      "outputs": [],
      "stateMutability": "nonpayable",
      "type": "function"
    },
    {
      "inputs": [
        {
          "internalType": "uint256",
          "name": "",
          "type": "uint256"
        }
      ],
      "name": "candidates",
      "outputs": [
        {
          "internalType": "uint256",
          "name": "id",
          "type": "uint256"
        },
        {
          "internalType": "string",
          "name": "name",
          "type": "string"
        },
        {
          "internalType": "uint256",
          "name": "voteCount",
          "type": "uint256"
        }
      ],
      "stateMutability": "view",
      "type": "function"
    },
    {
      "inputs": [],
      "name": "candidatesCount",
      "outputs": [
        {
          "internalType": "uint256",
          "name": "",
          "type": "uint256"
        }
      ],
      "stateMutability": "view",
      "type": "function"
    },
    {
      "inputs": [],
      "name": "getAllCandidates",
      "outputs": [
        {
          "components": [
            {
              "internalType": "uint256",
              "name": "id",
              "type": "uint256"
            },
            {
              "internalType": "string",
              "name": "name",
              "type": "string"
            },
            {
              "internalType": "uint256",
              "name": "voteCount",
              "type": "uint256"
            }
          ],
          "internalType": "struct Voting.Candidate[]",
          "name": "",
          "type": "tuple[]"
        }
      ],
      "stateMutability": "view",
      "type": "function"
    },
    {
      "inputs": [
        {
          "internalType": "uint256",
          "name": "candidateId",
          "type": "uint256"
        }
      ],
      "name": "getVotingResults",
      "outputs": [
        {
          "internalType": "uint256",
          "name": "",
          "type": "uint256"
        }
      ],
      "stateMutability": "view",
      "type": "function"
    },
    {
      "inputs": [
        {
          "internalType": "address",
          "name": "",
          "type": "address"
        }
      ],
      "name": "hasVoted",
      "outputs": [
        {
          "internalType": "bool",
          "name": "",
          "type": "bool"
        }
      ],
      "stateMutability": "view",
      "type": "function"
    },
    {
      "inputs": [],
      "name": "owner",
      "outputs": [
        {
          "internalType": "address",
          "name": "",
          "type": "address"
        }
      ],
      "stateMutability": "view",
      "type": "function"
    },
    {
      "inputs": [
        {
          "internalType": "uint256",
          "name": "candidateId",
          "type": "uint256"
        }
      ],
      "name": "vote",
      "outputs": [],
      "stateMutability": "nonpayable",
      "type": "function"
    },
    {
      "inputs": [],
      "name": "votingEnded",
      "outputs": [
        {
          "internalType": "bool",
          "name": "",
          "type": "bool"
        }
      ],
      "stateMutability": "view",
      "type": "function"
    }
  ],
  "bytecode": "0x60806040523480156200001157600080fd5b5060405162001bf638038062001bf68339818101604052810190620000379190620003ca565b60005b8151811015620000f35760016000815480929190620000599062000454565b919050555060405180606001604052806001548152602001838381518110620000875762000086620004a1565b5b602002602001015181526020016000815250600260006001548152602001908152602001600020600082015181600001556020820151816001019081620000cf919062000711565b50604082015181600201559050508080620000ea9062000454565b9150506200003a565b50336000806101000a81548173ffffffffffffffffffffffffffffffffffffffff021916908373ffffffffffffffffffffffffffffffffffffffff16021790555050620007f8565b6000604051905090565b600080fd5b600080fd5b600080fd5b6000601f19601f8301169050919050565b7f4e487b7100000000000000000000000000000000000000000000000000000000600052604160045260246000fd5b6200019f8262000154565b810181811067ffffffffffffffff82111715620001c157620001c062000165565b5b80604052505050565b6000620001d66200013b565b9050620001e4828262000194565b919050565b600067ffffffffffffffff82111562000207576200020662000165565b5b602082029050602081019050919050565b600080fd5b600080fd5b600067ffffffffffffffff82111562000240576200023f62000165565b5b6200024b8262000154565b9050602081019050919050565b60005b83811015620002785780820151818401526020810190506200025b565b60008484015250505050565b60006200029b620002958462000222565b620001ca565b905082815260208101848484011115620002ba57620002b96200021d565b5b620002c784828562000258565b509392505050565b600082601f830112620002e757620002e66200014f565b5b8151620002f984826020860162000284565b91505092915050565b6000620003196200031384620001e9565b620001ca565b905080838252602082019050602084028301858111156200033f576200033e62000218565b5b835b818110156200038d57805167ffffffffffffffff8111156200036857620003676200014f565b5b808601620003778982620002cf565b8552602085019450505060208101905062000341565b5050509392505050565b600082601f830112620003af57620003ae6200014f565b5b8151620003c184826020860162000302565b91505092915050565b600060208284031215620003e357620003e262000145565b5b600082015167ffffffffffffffff8111156200040457620004036200014a565b5b620004128482850162000397565b91505092915050565b7f4e487b7100000000000000000000000000000000000000000000000000000000600052601160045260246000fd5b6000819050919050565b600062000461826200044a565b91507fffffffffffffffffffffffffffffffffffffffffffffffffffffffffffffffff82036200049657620004956200041b565b5b600182019050919050565b7f4e487b7100000000000000000000000000000000000000000000000000000000600052603260045260246000fd5b600081519050919050565b7f4e487b7100000000000000000000000000000000000000000000000000000000600052602260045260246000fd5b600060028204905060018216806200052357607f821691505b602082108103620005395762000538620004db565b5b50919050565b60008190508160005260206000209050919050565b60006020601f8301049050919050565b600082821b905092915050565b600060088302620005a37fffffffffffffffffffffffffffffffffffffffffffffffffffffffffffffffff8262000564565b620005af868362000564565b95508019841693508086168417925050509392505050565b6000819050919050565b6000620005f2620005ec620005e6846200044a565b620005c7565b6200044a565b9050919050565b6000819050919050565b6200060e83620005d1565b620006266200061d82620005f9565b84845462000571565b825550505050565b600090565b6200063d6200062e565b6200064a81848462000603565b505050565b5b8181101562000672576200066660008262000633565b60018101905062000650565b5050565b601f821115620006c1576200068b816200053f565b620006968462000554565b81016020851015620006a6578190505b620006be620006b58562000554565b8301826200064f565b50505b505050565b600082821c905092915050565b6000620006e660001984600802620006c6565b1980831691505092915050565b6000620007018383620006d3565b9150826002028217905092915050565b6200071c82620004d0565b67ffffffffffffffff81111562000738576200073762000165565b5b6200074482546200050a565b6200075182828562000676565b600060209050601f83116001811462000789576000841562000774578287015190505b620007808582620006f3565b865550620007f0565b601f19841662000799866200053f565b60005b82811015620007c3578489015182556001820191506020850194506020810190506200079c565b86831015620007e35784890151620007df601f891682620006d3565b8355505b6001600288020188555050505b505050505050565b6113ee80620008086000396000f3fe608060405234801561001057600080fd5b50600436106100935760003560e01c80633477ee2e116100665780633477ee2e14610120578063462e91ec146101525780638da5cb5b1461016e5780639d5a05291461018c578063cd89b2e3146101aa57610093565b80630121b93f1461009857806309eef43e146100b45780632d35a8a2146100e45780632e6997fe14610102575b600080fd5b6100b260048036038101906100ad9190610881565b6101da565b005b6100ce60048036038101906100c9919061090c565b61038f565b6040516100db9190610954565b60405180910390f35b6100ec6103af565b6040516100f9919061097e565b60405180910390f35b61010a6103b5565b6040516101179190610b4a565b60405180910390f35b61013a60048036038101906101359190610881565b61052a565b60405161014993929190610bb6565b60405180910390f35b61016c60048036038101906101679190610d29565b6105dc565b005b61017661076f565b6040516101839190610d81565b60405180910390f35b610194610793565b6040516101a19190610954565b60405180910390f35b6101c460048036038101906101bf9190610881565b6107a6565b6040516101d1919061097e565b60405180910390f35b600060149054906101000a900460ff161561022a576040517f08c379a000000000000000000000000000000000000000000000000000000000815260040161022190610de8565b60405180910390fd5b600360003373ffffffffffffffffffffffffffffffffffffffff1673ffffffffffffffffffffffffffffffffffffffff16815260200190815260200160002060009054906101000a900460ff16156102b7576040517f08c379a00000000000000000000000000000000000000000000000000000000081526004016102ae90610e54565b60405180910390fd5b6000811180156102c957506001548111155b610308576040517f08c379a00000000000000000000000000000000000000000000000000000000081526004016102ff90610ec0565b60405180910390fd5b6001600360003373ffffffffffffffffffffffffffffffffffffffff1673ffffffffffffffffffffffffffffffffffffffff16815260200190815260200160002060006101000a81548160ff02191690831515021790555060026000828152602001908152602001600020600201600081548092919061038790610f0f565b919050555050565b60036020528060005260406000206000915054906101000a900460ff1681565b60015481565b6060600060015467ffffffffffffffff8111156103d5576103d4610bfe565b5b60405190808252806020026020018201604052801561040e57816020015b6103fb610816565b8152602001906001900390816103f35790505b5090506000600190505b600154811161052257600260008281526020019081526020016000206040518060600160405290816000820154815260200160018201805461045990610f86565b80601f016020809104026020016040519081016040528092919081815260200182805461048590610f86565b80156104d25780601f106104a7576101008083540402835291602001916104d2565b820191906000526020600020905b8154815290600101906020018083116104b557829003601f168201915b50505050508152602001600282015481525050826001836104f39190610fb7565b8151811061050457610503610feb565b5b6020026020010181905250808061051a90610f0f565b915050610418565b508091505090565b600260205280600052604060002060009150905080600001549080600101805461055390610f86565b80601f016020809104026020016040519081016040528092919081815260200182805461057f90610f86565b80156105cc5780601f106105a1576101008083540402835291602001916105cc565b820191906000526020600020905b8154815290600101906020018083116105af57829003601f168201915b5050505050908060020154905083565b60008054906101000a900473ffffffffffffffffffffffffffffffffffffffff1673ffffffffffffffffffffffffffffffffffffffff163373ffffffffffffffffffffffffffffffffffffffff161461066a576040517f08c379a00000000000000000000000000000000000000000000000000000000081526004016106619061108c565b60405180910390fd5b600060149054906101000a900460ff16156106ba576040517f08c379a00000000000000000000000000000000000000000000000000000000081526004016106b190610de8565b60405180910390fd5b600160008154809291906106cd90610f0f565b91905055506040518060600160405280600154815260200182815260200160008152506002600060015481526020019081526020016000206000820151816000015560208201518160010190816107249190611258565b50604082015181600201559050506001547fe83b2a43e7e82d975c8a0a6d2f045153c869e111136a34d1889ab7b598e396a382604051610764919061132a565b60405180910390a250565b60008054906101000a900473ffffffffffffffffffffffffffffffffffffffff1681565b600060149054906101000a900460ff1681565b600080821180156107b957506001548211155b6107f8576040517f08c379a00000000000000000000000000000000000000000000000000000000081526004016107ef90611398565b60405180910390fd5b60026000838152602001908152602001600020600201549050919050565b60405180606001604052806000815260200160608152602001600081525090565b6000604051905090565b600080fd5b600080fd5b6000819050919050565b61085e8161084b565b811461086957600080fd5b50565b60008135905061087b81610855565b92915050565b60006020828403121561089757610896610841565b5b60006108a58482850161086c565b91505092915050565b600073ffffffffffffffffffffffffffffffffffffffff82169050919050565b60006108d9826108ae565b9050919050565b6108e9816108ce565b81146108f457600080fd5b50565b600081359050610906816108e0565b92915050565b60006020828403121561092257610921610841565b5b6000610930848285016108f7565b91505092915050565b60008115159050919050565b61094e81610939565b82525050565b60006020820190506109696000830184610945565b92915050565b6109788161084b565b82525050565b6000602082019050610993600083018461096f565b92915050565b600081519050919050565b600082825260208201905092915050565b6000819050602082019050919050565b6109ce8161084b565b82525050565b600081519050919050565b600082825260208201905092915050565b60005b83811015610a0e5780820151818401526020810190506109f3565b60008484015250505050565b6000601f19601f8301169050919050565b6000610a36826109d4565b610a4081856109df565b9350610a508185602086016109f0565b610a5981610a1a565b840191505092915050565b6000606083016000830151610a7c60008601826109c5565b5060208301518482036020860152610a948282610a2b565b9150506040830151610aa960408601826109c5565b508091505092915050565b6000610ac08383610a64565b905092915050565b6000602082019050919050565b6000610ae082610999565b610aea81856109a4565b935083602082028501610afc856109b5565b8060005b85811015610b385784840389528151610b198582610ab4565b9450610b2483610ac8565b925060208a01995050600181019050610b00565b50829750879550505050505092915050565b60006020820190508181036000830152610b648184610ad5565b905092915050565b600082825260208201905092915050565b6000610b88826109d4565b610b928185610b6c565b9350610ba28185602086016109f0565b610bab81610a1a565b840191505092915050565b6000606082019050610bcb600083018661096f565b8181036020830152610bdd8185610b7d565b9050610bec604083018461096f565b949350505050565b600080fd5b600080fd5b7f4e487b7100000000000000000000000000000000000000000000000000000000600052604160045260246000fd5b610c3682610a1a565b810181811067ffffffffffffffff82111715610c5557610c54610bfe565b5b80604052505050565b6000610c68610837565b9050610c748282610c2d565b919050565b600067ffffffffffffffff821115610c9457610c93610bfe565b5b610c9d82610a1a565b9050602081019050919050565b82818337600083830152505050565b6000610ccc610cc784610c79565b610c5e565b905082815260208101848484011115610ce857610ce7610bf9565b5b610cf3848285610caa565b509392505050565b600082601f830112610d1057610d0f610bf4565b5b8135610d20848260208601610cb9565b91505092915050565b600060208284031215610d3f57610d3e610841565b5b600082013567ffffffffffffffff811115610d5d57610d5c610846565b5b610d6984828501610cfb565b91505092915050565b610d7b816108ce565b82525050565b6000602082019050610d966000830184610d72565b92915050565b7f566f74696e672068617320616c726561647920656e6465640000000000000000600082015250565b6000610dd2601883610b6c565b9150610ddd82610d9c565b602082019050919050565b60006020820190508181036000830152610e0181610dc5565b9050919050565b7f5573657220616c726561647920766f7465640000000000000000000000000000600082015250565b6000610e3e601283610b6c565b9150610e4982610e08565b602082019050919050565b60006020820190508181036000830152610e6d81610e31565b9050919050565b7f496e76616c69642063616e646964617465204964000000000000000000000000600082015250565b6000610eaa601483610b6c565b9150610eb582610e74565b602082019050919050565b60006020820190508181036000830152610ed981610e9d565b9050919050565b7f4e487b7100000000000000000000000000000000000000000000000000000000600052601160045260246000fd5b6000610f1a8261084b565b91507fffffffffffffffffffffffffffffffffffffffffffffffffffffffffffffffff8203610f4c57610f4b610ee0565b5b600182019050919050565b7f4e487b7100000000000000000000000000000000000000000000000000000000600052602260045260246000fd5b60006002820490506001821680610f9e57607f821691505b602082108103610fb157610fb0610f57565b5b50919050565b6000610fc28261084b565b9150610fcd8361084b565b9250828203905081811115610fe557610fe4610ee0565b5b92915050565b7f4e487b7100000000000000000000000000000000000000000000000000000000600052603260045260246000fd5b7f4f6e6c7920746865206f776e65722063616e20706572666f726d20746869732060008201527f616374696f6e0000000000000000000000000000000000000000000000000000602082015250565b6000611076602683610b6c565b91506110818261101a565b604082019050919050565b600060208201905081810360008301526110a581611069565b9050919050565b60008190508160005260206000209050919050565b60006020601f8301049050919050565b600082821b905092915050565b60006008830261110e7fffffffffffffffffffffffffffffffffffffffffffffffffffffffffffffffff826110d1565b61111886836110d1565b95508019841693508086168417925050509392505050565b6000819050919050565b600061115561115061114b8461084b565b611130565b61084b565b9050919050565b6000819050919050565b61116f8361113a565b61118361117b8261115c565b8484546110de565b825550505050565b600090565b61119861118b565b6111a3818484611166565b505050565b5b818110156111c7576111bc600082611190565b6001810190506111a9565b5050565b601f82111561120c576111dd816110ac565b6111e6846110c1565b810160208510156111f5578190505b611209611201856110c1565b8301826111a8565b50505b505050565b600082821c905092915050565b600061122f60001984600802611211565b1980831691505092915050565b6000611248838361121e565b9150826002028217905092915050565b611261826109d4565b67ffffffffffffffff81111561127a57611279610bfe565b5b6112848254610f86565b61128f8282856111cb565b600060209050601f8311600181146112c257600084156112b0578287015190505b6112ba858261123c565b865550611322565b601f1984166112d0866110ac565b60005b828110156112f8578489015182556001820191506020850194506020810190506112d3565b868310156113155784890151611311601f89168261121e565b8355505b6001600288020188555050505b505050505050565b600060208201905081810360008301526113448184610b7d565b905092915050565b7f496e76616c69642063616e646964617465204944000000000000000000000000600082015250565b6000611382601483610b6c565b915061138d8261134c565b602082019050919050565b600060208201905081810360008301526113b181611375565b905091905056fea2646970667358221220299d1d291b32ae0bd43f592245dd270346e970d8517a2adf1dbb2a6707ce346864736f6c63430008130033",
  "linkReferences": {},
  "deployedLinkReferences": {}
}